{
  "contractName": "Wikipedia",
  "abi": [
    {
      "inputs": [],
      "payable": false,
      "stateMutability": "nonpayable",
      "type": "constructor"
    },
    {
      "constant": true,
      "inputs": [
        {
          "internalType": "uint256",
          "name": "",
          "type": "uint256"
        }
      ],
      "name": "articlesById",
      "outputs": [
        {
          "internalType": "string",
          "name": "content",
          "type": "string"
        }
      ],
      "payable": false,
      "stateMutability": "view",
      "type": "function"
    },
    {
      "constant": true,
      "inputs": [
        {
          "internalType": "uint256",
          "name": "",
          "type": "uint256"
        },
        {
          "internalType": "uint256",
          "name": "",
          "type": "uint256"
        }
      ],
      "name": "articlesHistory",
      "outputs": [
        {
          "internalType": "string",
          "name": "content",
          "type": "string"
        }
      ],
      "payable": false,
      "stateMutability": "view",
      "type": "function"
    },
    {
      "constant": true,
      "inputs": [
        {
          "internalType": "uint256",
          "name": "",
          "type": "uint256"
        }
      ],
      "name": "ids",
      "outputs": [
        {
          "internalType": "uint256",
          "name": "",
          "type": "uint256"
        }
      ],
      "payable": false,
      "stateMutability": "view",
      "type": "function"
    },
    {
      "constant": true,
      "inputs": [
        {
          "internalType": "uint256",
          "name": "",
          "type": "uint256"
        }
      ],
      "name": "idsCountHistory",
      "outputs": [
        {
          "internalType": "uint256",
          "name": "",
          "type": "uint256"
        }
      ],
      "payable": false,
      "stateMutability": "view",
      "type": "function"
    },
    {
      "constant": true,
      "inputs": [
        {
          "internalType": "uint256",
          "name": "index",
          "type": "uint256"
        }
      ],
      "name": "articleContent",
      "outputs": [
        {
          "internalType": "string",
          "name": "",
          "type": "string"
        }
      ],
      "payable": false,
      "stateMutability": "view",
      "type": "function"
    },
    {
      "constant": true,
      "inputs": [],
      "name": "getAllIds",
      "outputs": [
        {
          "internalType": "uint256[]",
          "name": "",
          "type": "uint256[]"
        }
      ],
      "payable": false,
      "stateMutability": "view",
      "type": "function"
    },
    {
      "constant": false,
      "inputs": [
        {
          "internalType": "string",
          "name": "contenu",
          "type": "string"
        }
      ],
      "name": "createArticle",
      "outputs": [],
      "payable": false,
      "stateMutability": "nonpayable",
      "type": "function"
    },
    {
      "constant": false,
      "inputs": [
        {
          "internalType": "uint256",
          "name": "id",
          "type": "uint256"
        },
        {
          "internalType": "string",
          "name": "contenu",
          "type": "string"
        }
      ],
      "name": "modifyArticle",
      "outputs": [],
      "payable": false,
      "stateMutability": "nonpayable",
      "type": "function"
    },
    {
      "constant": true,
      "inputs": [
        {
          "internalType": "uint256",
          "name": "id",
          "type": "uint256"
        }
      ],
      "name": "getNumberHistorical",
      "outputs": [
        {
          "internalType": "uint256",
          "name": "",
          "type": "uint256"
        }
      ],
      "payable": false,
      "stateMutability": "view",
      "type": "function"
    },
    {
      "constant": true,
      "inputs": [
        {
          "internalType": "uint256",
          "name": "id",
          "type": "uint256"
        },
        {
          "internalType": "uint256",
          "name": "num",
          "type": "uint256"
        }
      ],
      "name": "getHistorical",
      "outputs": [
        {
          "internalType": "string",
          "name": "",
          "type": "string"
        }
      ],
      "payable": false,
      "stateMutability": "view",
      "type": "function"
    }
  ],
  "bytecode": "0x608060405234801561001057600080fd5b506000809050600081908060018154018082558091505090600182039060005260206000200160009091929091909150555061004a6100ae565b60405180602001604052806040518060600160405280602b8152602001610e12602b91398152509050806001600084815260200190815260200160002060008201518160000190805190602001906100a39291906100c1565b509050505050610166565b6040518060200160405280606081525090565b828054600181600116156101000203166002900490600052602060002090601f016020900481019282601f1061010257805160ff1916838001178555610130565b82800160010185558215610130579182015b8281111561012f578251825591602001919060010190610114565b5b50905061013d9190610141565b5090565b61016391905b8082111561015f576000816000905550600101610147565b5090565b90565b610c9d806101756000396000f3fe608060405234801561001057600080fd5b506004361061009e5760003560e01c8063ac26993811610066578063ac269938146102d4578063dc3e7bc614610385578063f072fe2014610440578063fac333ac146104f1578063fedec61f146105335761009e565b806302207107146100a35780630ad062801461014a578063520cd3ef146101f1578063a5d801db14610233578063aaa44e5c14610275575b600080fd5b6100cf600480360360208110156100b957600080fd5b81019080803590602001909291905050506105f8565b6040518080602001828103825283818151815260200191508051906020019080838360005b8381101561010f5780820151818401526020810190506100f4565b50505050905090810190601f16801561013c5780820380516001836020036101000a031916815260200191505b509250505060405180910390f35b6101766004803603602081101561016057600080fd5b81019080803590602001909291905050506106b0565b6040518080602001828103825283818151815260200191508051906020019080838360005b838110156101b657808201518184015260208101905061019b565b50505050905090810190601f1680156101e35780820380516001836020036101000a031916815260200191505b509250505060405180910390f35b61021d6004803603602081101561020757600080fd5b8101908080359060200190929190505050610766565b6040518082815260200191505060405180910390f35b61025f6004803603602081101561024957600080fd5b8101908080359060200190929190505050610783565b6040518082815260200191505060405180910390f35b61027d61079b565b6040518080602001828103825283818151815260200191508051906020019060200280838360005b838110156102c05780820151818401526020810190506102a5565b505050509050019250505060405180910390f35b61030a600480360360408110156102ea57600080fd5b8101908080359060200190929190803590602001909291905050506107f3565b6040518080602001828103825283818151815260200191508051906020019080838360005b8381101561034a57808201518184015260208101905061032f565b50505050905090810190601f1680156103775780820380516001836020036101000a031916815260200191505b509250505060405180910390f35b61043e6004803603602081101561039b57600080fd5b81019080803590602001906401000000008111156103b857600080fd5b8201836020820111156103ca57600080fd5b803590602001918460018302840111640100000000831117156103ec57600080fd5b91908080601f016020809104026020016040519081016040528093929190818152602001838380828437600081840152601f19601f8201169050808301925050505050505091929192905050506108b6565b005b6104766004803603604081101561045657600080fd5b810190808035906020019092919080359060200190929190505050610956565b6040518080602001828103825283818151815260200191508051906020019080838360005b838110156104b657808201518184015260208101905061049b565b50505050905090810190601f1680156104e35780820380516001836020036101000a031916815260200191505b509250505060405180910390f35b61051d6004803603602081101561050757600080fd5b8101908080359060200190929190505050610a20565b6040518082815260200191505060405180910390f35b6105f66004803603604081101561054957600080fd5b81019080803590602001909291908035906020019064010000000081111561057057600080fd5b82018360208201111561058257600080fd5b803590602001918460018302840111640100000000831117156105a457600080fd5b91908080601f016020809104026020016040519081016040528093929190818152602001838380828437600081840152601f19601f820116905080830192505050505050509192919290505050610a41565b005b6060600160008381526020019081526020016000206000018054600181600116156101000203166002900480601f0160208091040260200160405190810160405280929190818152602001828054600181600116156101000203166002900480156106a45780601f10610679576101008083540402835291602001916106a4565b820191906000526020600020905b81548152906001019060200180831161068757829003601f168201915b50505050509050919050565b6001602052806000526040600020600091509050806000018054600181600116156101000203166002900480601f01602080910402602001604051908101604052809291908181526020018280546001816001161561010002031660029004801561075c5780601f106107315761010080835404028352916020019161075c565b820191906000526020600020905b81548152906001019060200180831161073f57829003601f168201915b5050505050905081565b600060026000838152602001908152602001600020549050919050565b60026020528060005260406000206000915090505481565b606060008054806020026020016040519081016040528092919081815260200182805480156107e957602002820191906000526020600020905b8154815260200190600101908083116107d5575b5050505050905090565b600360205281600052604060002060205280600052604060002060009150915050806000018054600181600116156101000203166002900480601f0160208091040260200160405190810160405280929190818152602001828054600181600116156101000203166002900480156108ac5780601f10610881576101008083540402835291602001916108ac565b820191906000526020600020905b81548152906001019060200180831161088f57829003601f168201915b5050505050905081565b6108be610b29565b6040518060200160405280838152509050600080805490509050600081908060018154018082558091505090600182039060005260206000200160009091929091909150555081600160008381526020019081526020016000206000820151816000019080519060200190610934929190610b3c565b5090505060006002600083815260200190815260200160002081905550505050565b60606003600084815260200190815260200160002060008381526020019081526020016000206000018054600181600116156101000203166002900480601f016020809104026020016040519081016040528092919081815260200182805460018160011615610100020316600290048015610a135780601f106109e857610100808354040283529160200191610a13565b820191906000526020600020905b8154815290600101906020018083116109f657829003601f168201915b5050505050905092915050565b60008181548110610a2d57fe5b906000526020600020016000915090505481565b6000600260008481526020019081526020016000205490506001600084815260200190815260200160002060036000858152602001908152602001600020600083815260200190815260200160002060008201816000019080546001816001161561010002031660029004610ab7929190610bbc565b50905050600181016002600085815260200190815260200160002081905550610ade610b29565b604051806020016040528084815250905080600160008681526020019081526020016000206000820151816000019080519060200190610b1f929190610b3c565b5090505050505050565b6040518060200160405280606081525090565b828054600181600116156101000203166002900490600052602060002090601f016020900481019282601f10610b7d57805160ff1916838001178555610bab565b82800160010185558215610bab579182015b82811115610baa578251825591602001919060010190610b8f565b5b509050610bb89190610c43565b5090565b828054600181600116156101000203166002900490600052602060002090601f016020900481019282601f10610bf55780548555610c32565b82800160010185558215610c3257600052602060002091601f016020900482015b82811115610c31578254825591600101919060010190610c16565b5b509050610c3f9190610c43565b5090565b610c6591905b80821115610c61576000816000905550600101610c49565b5090565b9056fea265627a7a723158206cbd03b2eb2e10340e89759ca90d06352e87caf01b27af8c35dee3690a655dcf64736f6c634300051000325468697320697320796f75722066697273742061727469636c6520696e20796f757220636f6e7472616374",
  "source": "pragma solidity ^0.5.0;\n\ncontract Wikipedia {\n  //Structure de l'article\n  struct Article {\n    string content;\n  }\n\n  //Tableau contenant les différents identifiants\n  uint[] public ids;\n\n  //Tableau des articles\n  mapping (uint => Article) public articlesById;\n\n  //Tableau permettant de récupérer le dernier identifiant de l'historique d'un article\n  mapping (uint => uint) public idsCountHistory;\n\n  //Tableau contenant toutes les modifications par article\n  mapping (uint => mapping(uint => Article)) public articlesHistory;\n\n  //Constructeur, crée le premier article à l'appel du contrat la première fois\n  constructor() public {\n    uint index = 0;\n    ids.push(index);\n    Article memory newArticle = Article(\"This is your first article in your contract\");\n    articlesById[index] = newArticle;\n  }\n\n  //Permet de récupérer le contenu d'un article en fonction de son identifiant\n  function articleContent(uint index) public view returns (string memory) {\n    return articlesById[index].content;\n  }\n\n  //Récupère tous les ids\n  function getAllIds() public view returns (uint[] memory) {\n    return ids;\n  }\n\n  //Création d'un nouvel article\n  function createArticle(string memory contenu) public{\n    Article memory newArticle = Article(contenu);\n    uint  index = ids.length;\n    ids.push(index);\n    articlesById[index] = newArticle;\n    idsCountHistory[index] = 0;\n  }\n\n  //Modification de l'article en fonction de son identifiant\n  function modifyArticle(uint id,string memory contenu) public{\n    //Enregistrement de l'historique\n    uint index = idsCountHistory[id];\n    articlesHistory[id][index] = articlesById[id];\n    idsCountHistory[id] = index +1;\n\n    Article memory newArticle = Article(contenu);\n    articlesById[id] = newArticle;\n  }\n\n  function getNumberHistorical(uint id) public view returns (uint){\n    return idsCountHistory[id];\n  }\n\n  function getHistorical(uint id, uint num) public view returns (string memory){\n    return articlesHistory[id][num].content;\n  }\n}\n",
  "sourcePath": "/Users/mylenebalech/Documents/Projets/decentralized-wikipedia/contracts/Wikipedia.sol",
  "compiler": {
    "name": "solc",
    "version": "0.5.16+commit.9c3226ce.Emscripten.clang"
  },
  "schemaVersion": "3.3.2",
  "updatedAt": "2020-11-23T17:20:14.676Z",
  "networkType": "ethereum",
  "devdoc": {
    "methods": {}
  },
  "userdoc": {
    "methods": {}
  }
}